{
  "contractName": "Staking",
  "abi": [
    {
      "inputs": [
        {
          "internalType": "contract StakeCoin",
          "name": "_stakeCoin",
          "type": "address"
        }
      ],
      "stateMutability": "nonpayable",
      "type": "constructor"
    },
    {
      "anonymous": false,
      "inputs": [
        {
          "indexed": true,
          "internalType": "address",
          "name": "previousOwner",
          "type": "address"
        },
        {
          "indexed": true,
          "internalType": "address",
          "name": "newOwner",
          "type": "address"
        }
      ],
      "name": "OwnershipTransferred",
      "type": "event"
    },
    {
      "anonymous": false,
      "inputs": [
        {
          "indexed": false,
          "internalType": "address",
          "name": "stakeholderAddress",
          "type": "address"
        },
        {
          "indexed": false,
          "internalType": "uint256",
          "name": "reward",
          "type": "uint256"
        },
        {
          "indexed": false,
          "internalType": "address",
          "name": "tokenAddress",
          "type": "address"
        }
      ],
      "name": "RewardCalculated",
      "type": "event"
    },
    {
      "anonymous": false,
      "inputs": [
        {
          "indexed": false,
          "internalType": "address",
          "name": "stakeholderAddress",
          "type": "address"
        }
      ],
      "name": "RewardWithdrawn",
      "type": "event"
    },
    {
      "anonymous": false,
      "inputs": [
        {
          "indexed": false,
          "internalType": "address",
          "name": "stakeholderAddress",
          "type": "address"
        },
        {
          "indexed": false,
          "internalType": "address",
          "name": "tokenAddress",
          "type": "address"
        }
      ],
      "name": "RewardsDistributed",
      "type": "event"
    },
    {
      "anonymous": false,
      "inputs": [
        {
          "indexed": false,
          "internalType": "address",
          "name": "stakeholderAddress",
          "type": "address"
        },
        {
          "indexed": false,
          "internalType": "uint256",
          "name": "stakeholderStake",
          "type": "uint256"
        },
        {
          "indexed": false,
          "internalType": "address",
          "name": "tokenAddress",
          "type": "address"
        }
      ],
      "name": "StakeCreated",
      "type": "event"
    },
    {
      "anonymous": false,
      "inputs": [
        {
          "indexed": false,
          "internalType": "address",
          "name": "stakeholderAddress",
          "type": "address"
        },
        {
          "indexed": false,
          "internalType": "address",
          "name": "tokenAddress",
          "type": "address"
        }
      ],
      "name": "StakeRemoved",
      "type": "event"
    },
    {
      "anonymous": false,
      "inputs": [
        {
          "indexed": false,
          "internalType": "address",
          "name": "stakeholderAddress",
          "type": "address"
        }
      ],
      "name": "StakeholderAdded",
      "type": "event"
    },
    {
      "anonymous": false,
      "inputs": [
        {
          "indexed": false,
          "internalType": "address",
          "name": "stakeholderAddress",
          "type": "address"
        }
      ],
      "name": "StakeholderRemoved",
      "type": "event"
    },
    {
      "inputs": [
        {
          "internalType": "address",
          "name": "",
          "type": "address"
        },
        {
          "internalType": "address",
          "name": "",
          "type": "address"
        },
        {
          "internalType": "uint256",
          "name": "",
          "type": "uint256"
        }
      ],
      "name": "historyStake",
      "outputs": [
        {
          "internalType": "uint256",
          "name": "amount",
          "type": "uint256"
        },
        {
          "internalType": "uint256",
          "name": "dateStaked",
          "type": "uint256"
        }
      ],
      "stateMutability": "view",
      "type": "function",
      "constant": true
    },
    {
      "inputs": [],
      "name": "owner",
      "outputs": [
        {
          "internalType": "address",
          "name": "",
          "type": "address"
        }
      ],
      "stateMutability": "view",
      "type": "function",
      "constant": true
    },
    {
      "inputs": [],
      "name": "ownerOfContract",
      "outputs": [
        {
          "internalType": "address",
          "name": "",
          "type": "address"
        }
      ],
      "stateMutability": "view",
      "type": "function",
      "constant": true
    },
    {
      "inputs": [],
      "name": "renounceOwnership",
      "outputs": [],
      "stateMutability": "nonpayable",
      "type": "function"
    },
    {
      "inputs": [
        {
          "internalType": "uint256",
          "name": "",
          "type": "uint256"
        }
      ],
      "name": "stakeholders",
      "outputs": [
        {
          "internalType": "address",
          "name": "",
          "type": "address"
        }
      ],
      "stateMutability": "view",
      "type": "function",
      "constant": true
    },
    {
      "inputs": [
        {
          "internalType": "address",
          "name": "newOwner",
          "type": "address"
        }
      ],
      "name": "transferOwnership",
      "outputs": [],
      "stateMutability": "nonpayable",
      "type": "function"
    },
    {
      "inputs": [],
      "name": "getStakeholders",
      "outputs": [
        {
          "internalType": "address[]",
          "name": "",
          "type": "address[]"
        }
      ],
      "stateMutability": "view",
      "type": "function",
      "constant": true
    },
    {
      "inputs": [],
      "name": "getPrice",
      "outputs": [
        {
          "internalType": "int256",
          "name": "",
          "type": "int256"
        }
      ],
      "stateMutability": "view",
      "type": "function",
      "constant": true
    },
    {
      "inputs": [
        {
          "internalType": "address",
          "name": "_address",
          "type": "address"
        }
      ],
      "name": "isStakeholder",
      "outputs": [
        {
          "internalType": "bool",
          "name": "",
          "type": "bool"
        },
        {
          "internalType": "uint256",
          "name": "",
          "type": "uint256"
        }
      ],
      "stateMutability": "view",
      "type": "function",
      "constant": true
    },
    {
      "inputs": [
        {
          "internalType": "address",
          "name": "_stakeholder",
          "type": "address"
        }
      ],
      "name": "addStakeholder",
      "outputs": [],
      "stateMutability": "nonpayable",
      "type": "function"
    },
    {
      "inputs": [
        {
          "internalType": "address",
          "name": "_stakeholder",
          "type": "address"
        }
      ],
      "name": "removeStakeholder",
      "outputs": [],
      "stateMutability": "nonpayable",
      "type": "function"
    },
    {
      "inputs": [
        {
          "internalType": "address",
          "name": "_addressStakeHolder",
          "type": "address"
        },
        {
          "internalType": "address",
          "name": "_tokenAddress",
          "type": "address"
        }
      ],
      "name": "stakeOf",
      "outputs": [
        {
          "components": [
            {
              "internalType": "uint256",
              "name": "amount",
              "type": "uint256"
            },
            {
              "internalType": "uint256",
              "name": "dateStaked",
              "type": "uint256"
            }
          ],
          "internalType": "struct Staking.Stake[]",
          "name": "",
          "type": "tuple[]"
        }
      ],
      "stateMutability": "view",
      "type": "function",
      "constant": true
    },
    {
      "inputs": [
        {
          "internalType": "address",
          "name": "_tokenAddress",
          "type": "address"
        }
      ],
      "name": "sumOfStakes",
      "outputs": [
        {
          "internalType": "uint256",
          "name": "",
          "type": "uint256"
        }
      ],
      "stateMutability": "view",
      "type": "function",
      "constant": true
    },
    {
      "inputs": [
        {
          "internalType": "uint256",
          "name": "_stake",
          "type": "uint256"
        },
        {
          "internalType": "address",
          "name": "_tokenAddress",
          "type": "address"
        }
      ],
      "name": "createStake",
      "outputs": [],
      "stateMutability": "nonpayable",
      "type": "function"
    },
    {
      "inputs": [
        {
          "internalType": "address",
          "name": "_tokenAddress",
          "type": "address"
        }
      ],
      "name": "removeStake",
      "outputs": [],
      "stateMutability": "nonpayable",
      "type": "function"
    },
    {
      "inputs": [
        {
          "internalType": "address",
          "name": "_stakeholder",
          "type": "address"
        }
      ],
      "name": "rewardOf",
      "outputs": [
        {
          "internalType": "uint256",
          "name": "",
          "type": "uint256"
        }
      ],
      "stateMutability": "view",
      "type": "function",
      "constant": true
    },
    {
      "inputs": [],
      "name": "getTotalRewards",
      "outputs": [
        {
          "internalType": "uint256",
          "name": "",
          "type": "uint256"
        }
      ],
      "stateMutability": "view",
      "type": "function",
      "constant": true
    },
    {
      "inputs": [
        {
          "internalType": "address",
          "name": "_stakeholder",
          "type": "address"
        },
        {
          "internalType": "address",
          "name": "_tokenAddress",
          "type": "address"
        }
      ],
      "name": "calculateReward",
      "outputs": [
        {
          "internalType": "uint256",
          "name": "",
          "type": "uint256"
        }
      ],
      "stateMutability": "nonpayable",
      "type": "function"
    },
    {
      "inputs": [
        {
          "internalType": "address",
          "name": "_tokenAddress",
          "type": "address"
        }
      ],
      "name": "distributeRewards",
      "outputs": [],
      "stateMutability": "nonpayable",
      "type": "function"
    },
    {
      "inputs": [],
      "name": "withdrawReward",
      "outputs": [],
      "stateMutability": "nonpayable",
      "type": "function"
    }
  ],
  "bytecode": "0x6080604052606460035560056006553480156200001b57600080fd5b50604051620051693803806200516983398181016040528101906200004191906200034e565b6200006162000055620001f660201b60201c565b620001fe60201b60201c565b33600760006101000a81548173ffffffffffffffffffffffffffffffffffffffff021916908373ffffffffffffffffffffffffffffffffffffffff160217905550600073ffffffffffffffffffffffffffffffffffffffff168173ffffffffffffffffffffffffffffffffffffffff16141562000158576000604051620000e890620002c2565b620000f49190620003d7565b604051809103906000f08015801562000111573d6000803e3d6000fd5b50600460006101000a81548173ffffffffffffffffffffffffffffffffffffffff021916908373ffffffffffffffffffffffffffffffffffffffff1602179055506200019a565b80600460006101000a81548173ffffffffffffffffffffffffffffffffffffffff021916908373ffffffffffffffffffffffffffffffffffffffff1602179055505b733af8c569ab77af5230596acf0e8c2f9351d24c38600860006101000a81548173ffffffffffffffffffffffffffffffffffffffff021916908373ffffffffffffffffffffffffffffffffffffffff16021790555050620003f4565b600033905090565b60008060009054906101000a900473ffffffffffffffffffffffffffffffffffffffff169050816000806101000a81548173ffffffffffffffffffffffffffffffffffffffff021916908373ffffffffffffffffffffffffffffffffffffffff1602179055508173ffffffffffffffffffffffffffffffffffffffff168173ffffffffffffffffffffffffffffffffffffffff167f8be0079c531659141344cd1fd0a4f28419497f9722a3daafe3b4186f6b6457e060405160405180910390a35050565b6120ce806200309b83390190565b600080fd5b600073ffffffffffffffffffffffffffffffffffffffff82169050919050565b60006200030282620002d5565b9050919050565b60006200031682620002f5565b9050919050565b620003288162000309565b81146200033457600080fd5b50565b60008151905062000348816200031d565b92915050565b600060208284031215620003675762000366620002d0565b5b6000620003778482850162000337565b91505092915050565b6000819050919050565b6000819050919050565b6000819050919050565b6000620003bf620003b9620003b38462000380565b62000394565b6200038a565b9050919050565b620003d1816200039e565b82525050565b6000602082019050620003ee6000830184620003c6565b92915050565b612c9780620004046000396000f3fe608060405234801561001057600080fd5b506004361061012c5760003560e01c806398d5fdca116100ad578063e5c42fd111610071578063e5c42fd114610332578063e627f2db1461034e578063ef037b901461036c578063f2fde38b1461039d578063fe2ba848146103b95761012c565b806398d5fdca146102a0578063b6992247146102be578063bcb0c2d7146102dc578063c885bc58146102f8578063ce4cb876146103025761012c565b80635791b5a8116100f45780635791b5a8146101fc57806364687d671461022c578063715018a6146102485780637ca44fcf146102525780638da5cb5b146102825761012c565b80631d62ebd9146101315780631d6b8b72146101615780631de9d9b614610191578063336d7d43146101ad578063468229ae146101de575b600080fd5b61014b6004803603810190610146919061201f565b6103d5565b6040516101589190612065565b60405180910390f35b61017b600480360381019061017691906120ac565b61041e565b60405161018891906120e8565b60405180910390f35b6101ab60048036038101906101a6919061201f565b61045d565b005b6101c760048036038101906101c29190612103565b6108cc565b6040516101d5929190612156565b60405180910390f35b6101e661091a565b6040516101f391906120e8565b60405180910390f35b6102166004803603810190610211919061201f565b610940565b6040516102239190612065565b60405180910390f35b6102466004803603810190610241919061217f565b610a60565b005b610250610d71565b005b61026c600480360381019061026791906121bf565b610df9565b6040516102799190612065565b60405180910390f35b61028a611117565b60405161029791906120e8565b60405180910390f35b6102a8611140565b6040516102b59190612218565b60405180910390f35b6102c66111fe565b6040516102d391906122f1565b60405180910390f35b6102f660048036038101906102f1919061201f565b61128c565b005b610300611487565b005b61031c600480360381019061031791906121bf565b61172f565b6040516103299190612400565b60405180910390f35b61034c6004803603810190610347919061201f565b6118d2565b005b610356611a3b565b6040516103639190612065565b60405180910390f35b6103866004803603810190610381919061201f565b611af8565b60405161039492919061243d565b60405180910390f35b6103b760048036038101906103b2919061201f565b611bac565b005b6103d360048036038101906103ce919061201f565b611ca4565b005b6000600560008373ffffffffffffffffffffffffffffffffffffffff1673ffffffffffffffffffffffffffffffffffffffff168152602001908152602001600020549050919050565b6002818154811061042e57600080fd5b906000526020600020016000915054906101000a900473ffffffffffffffffffffffffffffffffffffffff1681565b3360008061046a83611af8565b915091506001151582151514806104ce5750600760009054906101000a900473ffffffffffffffffffffffffffffffffffffffff1673ffffffffffffffffffffffffffffffffffffffff163373ffffffffffffffffffffffffffffffffffffffff16145b61050d576040517f08c379a0000000000000000000000000000000000000000000000000000000008152600401610504906124e9565b60405180910390fd5b610515611ea5565b73ffffffffffffffffffffffffffffffffffffffff16610533611117565b73ffffffffffffffffffffffffffffffffffffffff1614610589576040517f08c379a000000000000000000000000000000000000000000000000000000000815260040161058090612555565b60405180910390fd5b600080600090505b60028054905081101561088b576000600282815481106105b4576105b3612575565b5b9060005260206000200160009054906101000a900473ffffffffffffffffffffffffffffffffffffffff1690506105eb8188610df9565b925082600560008373ffffffffffffffffffffffffffffffffffffffff1673ffffffffffffffffffffffffffffffffffffffff1681526020019081526020016000205461063891906125d3565b600560008373ffffffffffffffffffffffffffffffffffffffff1673ffffffffffffffffffffffffffffffffffffffff168152602001908152602001600020819055506000610685611140565b9050600081856106959190612658565b9050600460009054906101000a900473ffffffffffffffffffffffffffffffffffffffff1673ffffffffffffffffffffffffffffffffffffffff166340c10f1930600560008773ffffffffffffffffffffffffffffffffffffffff1673ffffffffffffffffffffffffffffffffffffffff168152602001908152602001600020546040518363ffffffff1660e01b8152600401610733929190612689565b602060405180830381600087803b15801561074d57600080fd5b505af1158015610761573d6000803e3d6000fd5b505050506040513d601f19601f8201168201806040525081019061078591906126de565b50600460009054906101000a900473ffffffffffffffffffffffffffffffffffffffff1673ffffffffffffffffffffffffffffffffffffffff1663a9059cbb84600560008773ffffffffffffffffffffffffffffffffffffffff1673ffffffffffffffffffffffffffffffffffffffff168152602001908152602001600020546040518363ffffffff1660e01b8152600401610822929190612689565b602060405180830381600087803b15801561083c57600080fd5b505af1158015610850573d6000803e3d6000fd5b505050506040513d601f19601f8201168201806040525081019061087491906126de565b5050505080806108839061270b565b915050610591565b507ffe8d44a428afa0ac50fdfd88132118f3efb5860f486f2cb3c4b7c8beece4566c33866040516108bd929190612754565b60405180910390a15050505050565b600160205282600052604060002060205281600052604060002081815481106108f457600080fd5b906000526020600020906002020160009250925050508060000154908060010154905082565b600760009054906101000a900473ffffffffffffffffffffffffffffffffffffffff1681565b6000806000905060005b600280549050811015610a5657600160006002838154811061096f5761096e612575565b5b9060005260206000200160009054906101000a900473ffffffffffffffffffffffffffffffffffffffff1673ffffffffffffffffffffffffffffffffffffffff1673ffffffffffffffffffffffffffffffffffffffff16815260200190815260200160002060008573ffffffffffffffffffffffffffffffffffffffff1673ffffffffffffffffffffffffffffffffffffffff1681526020019081526020016000208181548110610a2357610a22612575565b5b90600052602060002090600202016000015482610a4091906125d3565b9150600181610a4f91906125d3565b905061094a565b5080915050919050565b33600080610a6d83611af8565b91509150600115158215151480610ad15750600760009054906101000a900473ffffffffffffffffffffffffffffffffffffffff1673ffffffffffffffffffffffffffffffffffffffff163373ffffffffffffffffffffffffffffffffffffffff16145b610b10576040517f08c379a0000000000000000000000000000000000000000000000000000000008152600401610b07906124e9565b60405180910390fd5b60008473ffffffffffffffffffffffffffffffffffffffff166318160ddd6040518163ffffffff1660e01b815260040160206040518083038186803b158015610b5857600080fd5b505afa158015610b6c573d6000803e3d6000fd5b505050506040513d601f19601f82011682018060405250810190610b909190612792565b11610bd0576040517f08c379a0000000000000000000000000000000000000000000000000000000008152600401610bc79061280b565b60405180910390fd5b600160003373ffffffffffffffffffffffffffffffffffffffff1673ffffffffffffffffffffffffffffffffffffffff16815260200190815260200160002060008573ffffffffffffffffffffffffffffffffffffffff1673ffffffffffffffffffffffffffffffffffffffff1681526020019081526020016000206040518060400160405280878152602001428152509080600181540180825580915050600190039060005260206000209060020201600090919091909150600082015181600001556020820151816001015550508373ffffffffffffffffffffffffffffffffffffffff166323b872dd3330886040518463ffffffff1660e01b8152600401610cdd9392919061282b565b602060405180830381600087803b158015610cf757600080fd5b505af1158015610d0b573d6000803e3d6000fd5b505050506040513d601f19601f82011682018060405250810190610d2f91906126de565b507ec2db9af7ecb683af0b9f79cbdc8d4eac51d9ab4ceb1fb2ac7419d14961624b338686604051610d6293929190612862565b60405180910390a15050505050565b610d79611ea5565b73ffffffffffffffffffffffffffffffffffffffff16610d97611117565b73ffffffffffffffffffffffffffffffffffffffff1614610ded576040517f08c379a0000000000000000000000000000000000000000000000000000000008152600401610de490612555565b60405180910390fd5b610df76000611ead565b565b600033600080610e0883611af8565b91509150600115158215151480610e6c5750600760009054906101000a900473ffffffffffffffffffffffffffffffffffffffff1673ffffffffffffffffffffffffffffffffffffffff163373ffffffffffffffffffffffffffffffffffffffff16145b610eab576040517f08c379a0000000000000000000000000000000000000000000000000000000008152600401610ea2906124e9565b60405180910390fd5b6000805b600160008973ffffffffffffffffffffffffffffffffffffffff1673ffffffffffffffffffffffffffffffffffffffff16815260200190815260200160002060008873ffffffffffffffffffffffffffffffffffffffff1673ffffffffffffffffffffffffffffffffffffffff168152602001908152602001600020805490508110156110ce5760018060008a73ffffffffffffffffffffffffffffffffffffffff1673ffffffffffffffffffffffffffffffffffffffff16815260200190815260200160002060008973ffffffffffffffffffffffffffffffffffffffff1673ffffffffffffffffffffffffffffffffffffffff1681526020019081526020016000208281548110610fc557610fc4612575565b5b90600052602060002090600202016001015442610fe29190612899565b610fec9190612658565b60646005600160008c73ffffffffffffffffffffffffffffffffffffffff1673ffffffffffffffffffffffffffffffffffffffff16815260200190815260200160002060008b73ffffffffffffffffffffffffffffffffffffffff1673ffffffffffffffffffffffffffffffffffffffff168152602001908152602001600020848154811061107e5761107d612575565b5b90600052602060002090600202016000015461109a91906128cd565b6110a49190612658565b6110ae91906128cd565b826110b991906125d3565b915080806110c69061270b565b915050610eaf565b507f013920a8042575ff65feeb72179792b6544b0729bf153319424101387573902187828860405161110293929190612862565b60405180910390a18094505050505092915050565b60008060009054906101000a900473ffffffffffffffffffffffffffffffffffffffff16905090565b600080600080600080600860009054906101000a900473ffffffffffffffffffffffffffffffffffffffff1673ffffffffffffffffffffffffffffffffffffffff1663feaf968c6040518163ffffffff1660e01b815260040160a06040518083038186803b1580156111b157600080fd5b505afa1580156111c5573d6000803e3d6000fd5b505050506040513d601f19601f820116820180604052508101906111e99190612995565b94509450945094509450839550505050505090565b6060600280548060200260200160405190810160405280929190818152602001828054801561128257602002820191906000526020600020905b8160009054906101000a900473ffffffffffffffffffffffffffffffffffffffff1673ffffffffffffffffffffffffffffffffffffffff1681526020019060010190808311611238575b5050505050905090565b611294611ea5565b73ffffffffffffffffffffffffffffffffffffffff166112b2611117565b73ffffffffffffffffffffffffffffffffffffffff1614611308576040517f08c379a00000000000000000000000000000000000000000000000000000000081526004016112ff90612555565b60405180910390fd5b60008061131483611af8565b9150915081611358576040517f08c379a000000000000000000000000000000000000000000000000000000000815260040161134f90612a82565b60405180910390fd5b6002600160028054905061136c9190612899565b8154811061137d5761137c612575565b5b9060005260206000200160009054906101000a900473ffffffffffffffffffffffffffffffffffffffff16600282815481106113bc576113bb612575565b5b9060005260206000200160006101000a81548173ffffffffffffffffffffffffffffffffffffffff021916908373ffffffffffffffffffffffffffffffffffffffff160217905550600280548061141657611415612aa2565b5b6001900381819060005260206000200160006101000a81549073ffffffffffffffffffffffffffffffffffffffff021916905590557f8d36e95af41e9d50e4ca435702a0e868f35b4f71c1e390a2acc6c5c5651ef28b8360405161147a91906120e8565b60405180910390a1505050565b3360008061149483611af8565b915091506001151582151514806114f85750600760009054906101000a900473ffffffffffffffffffffffffffffffffffffffff1673ffffffffffffffffffffffffffffffffffffffff163373ffffffffffffffffffffffffffffffffffffffff16145b611537576040517f08c379a000000000000000000000000000000000000000000000000000000000815260040161152e906124e9565b60405180910390fd5b6000600560003373ffffffffffffffffffffffffffffffffffffffff1673ffffffffffffffffffffffffffffffffffffffff16815260200190815260200160002054116115b9576040517f08c379a00000000000000000000000000000000000000000000000000000000081526004016115b090612b1d565b60405180910390fd5b6000600560003373ffffffffffffffffffffffffffffffffffffffff1673ffffffffffffffffffffffffffffffffffffffff1681526020019081526020016000205490506000600560003373ffffffffffffffffffffffffffffffffffffffff1673ffffffffffffffffffffffffffffffffffffffff16815260200190815260200160002081905550600460009054906101000a900473ffffffffffffffffffffffffffffffffffffffff1673ffffffffffffffffffffffffffffffffffffffff166340c10f1933836040518363ffffffff1660e01b815260040161169f929190612689565b602060405180830381600087803b1580156116b957600080fd5b505af11580156116cd573d6000803e3d6000fd5b505050506040513d601f19601f820116820180604052508101906116f191906126de565b507f5aeb8e5fdcf55ce4b64c6a9e24f44462efb9a71cf5cf098bf3195f272d668d8a3360405161172191906120e8565b60405180910390a150505050565b60603360008061173e83611af8565b915091506001151582151514806117a25750600760009054906101000a900473ffffffffffffffffffffffffffffffffffffffff1673ffffffffffffffffffffffffffffffffffffffff163373ffffffffffffffffffffffffffffffffffffffff16145b6117e1576040517f08c379a00000000000000000000000000000000000000000000000000000000081526004016117d8906124e9565b60405180910390fd5b600160008773ffffffffffffffffffffffffffffffffffffffff1673ffffffffffffffffffffffffffffffffffffffff16815260200190815260200160002060008673ffffffffffffffffffffffffffffffffffffffff1673ffffffffffffffffffffffffffffffffffffffff168152602001908152602001600020805480602002602001604051908101604052809291908181526020016000905b828210156118c35783829060005260206000209060020201604051806040016040529081600082015481526020016001820154815250508152602001906001019061187d565b50505050935050505092915050565b6118da611ea5565b73ffffffffffffffffffffffffffffffffffffffff166118f8611117565b73ffffffffffffffffffffffffffffffffffffffff161461194e576040517f08c379a000000000000000000000000000000000000000000000000000000000815260040161194590612555565b60405180910390fd5b600061195982611af8565b509050801561199d576040517f08c379a000000000000000000000000000000000000000000000000000000000815260040161199490612baf565b60405180910390fd5b6002829080600181540180825580915050600190039060005260206000200160009091909190916101000a81548173ffffffffffffffffffffffffffffffffffffffff021916908373ffffffffffffffffffffffffffffffffffffffff1602179055507fd9b802c55a7d0aabbc6554676754b5b4aabc8edf1d540b77812f81f6d4409ea182604051611a2f91906120e8565b60405180910390a15050565b6000806000905060005b600280549050811015611af0576005600060028381548110611a6a57611a69612575565b5b9060005260206000200160009054906101000a900473ffffffffffffffffffffffffffffffffffffffff1673ffffffffffffffffffffffffffffffffffffffff1673ffffffffffffffffffffffffffffffffffffffff1681526020019081526020016000205482611adb91906125d3565b91508080611ae89061270b565b915050611a45565b508091505090565b60008060005b600280549050811015611b9e5760028181548110611b1f57611b1e612575565b5b9060005260206000200160009054906101000a900473ffffffffffffffffffffffffffffffffffffffff1673ffffffffffffffffffffffffffffffffffffffff168473ffffffffffffffffffffffffffffffffffffffff161415611b8a576001819250925050611ba7565b600181611b9791906125d3565b9050611afe565b50600080915091505b915091565b611bb4611ea5565b73ffffffffffffffffffffffffffffffffffffffff16611bd2611117565b73ffffffffffffffffffffffffffffffffffffffff1614611c28576040517f08c379a0000000000000000000000000000000000000000000000000000000008152600401611c1f90612555565b60405180910390fd5b600073ffffffffffffffffffffffffffffffffffffffff168173ffffffffffffffffffffffffffffffffffffffff161415611c98576040517f08c379a0000000000000000000000000000000000000000000000000000000008152600401611c8f90612c41565b60405180910390fd5b611ca181611ead565b50565b33600080611cb183611af8565b91509150600115158215151480611d155750600760009054906101000a900473ffffffffffffffffffffffffffffffffffffffff1673ffffffffffffffffffffffffffffffffffffffff163373ffffffffffffffffffffffffffffffffffffffff16145b611d54576040517f08c379a0000000000000000000000000000000000000000000000000000000008152600401611d4b906124e9565b60405180910390fd5b60008473ffffffffffffffffffffffffffffffffffffffff166318160ddd6040518163ffffffff1660e01b815260040160206040518083038186803b158015611d9c57600080fd5b505afa158015611db0573d6000803e3d6000fd5b505050506040513d601f19601f82011682018060405250810190611dd49190612792565b11611dde57600080fd5b600160003373ffffffffffffffffffffffffffffffffffffffff1673ffffffffffffffffffffffffffffffffffffffff16815260200190815260200160002060008573ffffffffffffffffffffffffffffffffffffffff1673ffffffffffffffffffffffffffffffffffffffff1681526020019081526020016000206000611e669190611f71565b7f698b699627f845a0a177da4fbb291c966684fdb0b944bcac38450e79abaa83443385604051611e97929190612754565b60405180910390a150505050565b600033905090565b60008060009054906101000a900473ffffffffffffffffffffffffffffffffffffffff169050816000806101000a81548173ffffffffffffffffffffffffffffffffffffffff021916908373ffffffffffffffffffffffffffffffffffffffff1602179055508173ffffffffffffffffffffffffffffffffffffffff168173ffffffffffffffffffffffffffffffffffffffff167f8be0079c531659141344cd1fd0a4f28419497f9722a3daafe3b4186f6b6457e060405160405180910390a35050565b5080546000825560020290600052602060002090810190611f929190611f95565b50565b5b80821115611fb857600080820160009055600182016000905550600201611f96565b5090565b600080fd5b600073ffffffffffffffffffffffffffffffffffffffff82169050919050565b6000611fec82611fc1565b9050919050565b611ffc81611fe1565b811461200757600080fd5b50565b60008135905061201981611ff3565b92915050565b60006020828403121561203557612034611fbc565b5b60006120438482850161200a565b91505092915050565b6000819050919050565b61205f8161204c565b82525050565b600060208201905061207a6000830184612056565b92915050565b6120898161204c565b811461209457600080fd5b50565b6000813590506120a681612080565b92915050565b6000602082840312156120c2576120c1611fbc565b5b60006120d084828501612097565b91505092915050565b6120e281611fe1565b82525050565b60006020820190506120fd60008301846120d9565b92915050565b60008060006060848603121561211c5761211b611fbc565b5b600061212a8682870161200a565b935050602061213b8682870161200a565b925050604061214c86828701612097565b9150509250925092565b600060408201905061216b6000830185612056565b6121786020830184612056565b9392505050565b6000806040838503121561219657612195611fbc565b5b60006121a485828601612097565b92505060206121b58582860161200a565b9150509250929050565b600080604083850312156121d6576121d5611fbc565b5b60006121e48582860161200a565b92505060206121f58582860161200a565b9150509250929050565b6000819050919050565b612212816121ff565b82525050565b600060208201905061222d6000830184612209565b92915050565b600081519050919050565b600082825260208201905092915050565b6000819050602082019050919050565b61226881611fe1565b82525050565b600061227a838361225f565b60208301905092915050565b6000602082019050919050565b600061229e82612233565b6122a8818561223e565b93506122b38361224f565b8060005b838110156122e45781516122cb888261226e565b97506122d683612286565b9250506001810190506122b7565b5085935050505092915050565b6000602082019050818103600083015261230b8184612293565b905092915050565b600081519050919050565b600082825260208201905092915050565b6000819050602082019050919050565b6123488161204c565b82525050565b604082016000820151612364600085018261233f565b506020820151612377602085018261233f565b50505050565b6000612389838361234e565b60408301905092915050565b6000602082019050919050565b60006123ad82612313565b6123b7818561231e565b93506123c28361232f565b8060005b838110156123f35781516123da888261237d565b97506123e583612395565b9250506001810190506123c6565b5085935050505092915050565b6000602082019050818103600083015261241a81846123a2565b905092915050565b60008115159050919050565b61243781612422565b82525050565b6000604082019050612452600083018561242e565b61245f6020830184612056565b9392505050565b600082825260208201905092915050565b7f7468652061646472657373206973206e6f742061207374616b65686f6c64657260008201527f2f61646d696e2100000000000000000000000000000000000000000000000000602082015250565b60006124d3602783612466565b91506124de82612477565b604082019050919050565b60006020820190508181036000830152612502816124c6565b9050919050565b7f4f776e61626c653a2063616c6c6572206973206e6f7420746865206f776e6572600082015250565b600061253f602083612466565b915061254a82612509565b602082019050919050565b6000602082019050818103600083015261256e81612532565b9050919050565b7f4e487b7100000000000000000000000000000000000000000000000000000000600052603260045260246000fd5b7f4e487b7100000000000000000000000000000000000000000000000000000000600052601160045260246000fd5b60006125de8261204c565b91506125e98361204c565b9250827fffffffffffffffffffffffffffffffffffffffffffffffffffffffffffffffff0382111561261e5761261d6125a4565b5b828201905092915050565b7f4e487b7100000000000000000000000000000000000000000000000000000000600052601260045260246000fd5b60006126638261204c565b915061266e8361204c565b92508261267e5761267d612629565b5b828204905092915050565b600060408201905061269e60008301856120d9565b6126ab6020830184612056565b9392505050565b6126bb81612422565b81146126c657600080fd5b50565b6000815190506126d8816126b2565b92915050565b6000602082840312156126f4576126f3611fbc565b5b6000612702848285016126c9565b91505092915050565b60006127168261204c565b91507fffffffffffffffffffffffffffffffffffffffffffffffffffffffffffffffff821415612749576127486125a4565b5b600182019050919050565b600060408201905061276960008301856120d9565b61277660208301846120d9565b9392505050565b60008151905061278c81612080565b92915050565b6000602082840312156127a8576127a7611fbc565b5b60006127b68482850161277d565b91505092915050565b7f4e6f7420616e2045524332300000000000000000000000000000000000000000600082015250565b60006127f5600c83612466565b9150612800826127bf565b602082019050919050565b60006020820190508181036000830152612824816127e8565b9050919050565b600060608201905061284060008301866120d9565b61284d60208301856120d9565b61285a6040830184612056565b949350505050565b600060608201905061287760008301866120d9565b6128846020830185612056565b61289160408301846120d9565b949350505050565b60006128a48261204c565b91506128af8361204c565b9250828210156128c2576128c16125a4565b5b828203905092915050565b60006128d88261204c565b91506128e38361204c565b9250817fffffffffffffffffffffffffffffffffffffffffffffffffffffffffffffffff048311821515161561291c5761291b6125a4565b5b828202905092915050565b600069ffffffffffffffffffff82169050919050565b61294681612927565b811461295157600080fd5b50565b6000815190506129638161293d565b92915050565b612972816121ff565b811461297d57600080fd5b50565b60008151905061298f81612969565b92915050565b600080600080600060a086880312156129b1576129b0611fbc565b5b60006129bf88828901612954565b95505060206129d088828901612980565b94505060406129e18882890161277d565b93505060606129f28882890161277d565b9250506080612a0388828901612954565b9150509295509295909350565b7f74686973206164647265737320283d207374616b65686f6c646572292069732060008201527f616c72656164792072656d6f7665640000000000000000000000000000000000602082015250565b6000612a6c602f83612466565b9150612a7782612a10565b604082019050919050565b60006020820190508181036000830152612a9b81612a5f565b9050919050565b7f4e487b7100000000000000000000000000000000000000000000000000000000600052603160045260246000fd5b7f4e6f2072657761726420746f2077697468647261770000000000000000000000600082015250565b6000612b07601583612466565b9150612b1282612ad1565b602082019050919050565b60006020820190508181036000830152612b3681612afa565b9050919050565b7f74686973206164647265737320697320616c72656164792061207374616b656860008201527f6f6c646572000000000000000000000000000000000000000000000000000000602082015250565b6000612b99602583612466565b9150612ba482612b3d565b604082019050919050565b60006020820190508181036000830152612bc881612b8c565b9050919050565b7f4f776e61626c653a206e6577206f776e657220697320746865207a65726f206160008201527f6464726573730000000000000000000000000000000000000000000000000000602082015250565b6000612c2b602683612466565b9150612c3682612bcf565b604082019050919050565b60006020820190508181036000830152612c5a81612c1e565b905091905056fea26469706673582212200e5dc0a231155269d41d7cdb1f0616b7dbe4ee228c447166d2131f3cd125e29c64736f6c6343000809003360806040523480156200001157600080fd5b50604051620020ce380380620020ce83398181016040528101906200003791906200048a565b6040518060400160405280601081526020017f5374616b6520436f696e20546f6b656e000000000000000000000000000000008152506040518060400160405280600381526020017f53544300000000000000000000000000000000000000000000000000000000008152508160039080519060200190620000bb9291906200039a565b508060049080519060200190620000d49291906200039a565b505050620000f7620000eb6200011f60201b60201c565b6200012760201b60201c565b620001186200010b620001ed60201b60201c565b826200021760201b60201c565b506200065e565b600033905090565b6000600560009054906101000a900473ffffffffffffffffffffffffffffffffffffffff16905081600560006101000a81548173ffffffffffffffffffffffffffffffffffffffff021916908373ffffffffffffffffffffffffffffffffffffffff1602179055508173ffffffffffffffffffffffffffffffffffffffff168173ffffffffffffffffffffffffffffffffffffffff167f8be0079c531659141344cd1fd0a4f28419497f9722a3daafe3b4186f6b6457e060405160405180910390a35050565b6000600560009054906101000a900473ffffffffffffffffffffffffffffffffffffffff16905090565b600073ffffffffffffffffffffffffffffffffffffffff168273ffffffffffffffffffffffffffffffffffffffff1614156200028a576040517f08c379a000000000000000000000000000000000000000000000000000000000815260040162000281906200051d565b60405180910390fd5b6200029e600083836200039060201b60201c565b8060026000828254620002b291906200056e565b92505081905550806000808473ffffffffffffffffffffffffffffffffffffffff1673ffffffffffffffffffffffffffffffffffffffff16815260200190815260200160002060008282546200030991906200056e565b925050819055508173ffffffffffffffffffffffffffffffffffffffff16600073ffffffffffffffffffffffffffffffffffffffff167fddf252ad1be2c89b69c2b068fc378daa952ba7f163c4a11628f55a4df523b3ef83604051620003709190620005dc565b60405180910390a36200038c600083836200039560201b60201c565b5050565b505050565b505050565b828054620003a89062000628565b90600052602060002090601f016020900481019282620003cc576000855562000418565b82601f10620003e757805160ff191683800117855562000418565b8280016001018555821562000418579182015b8281111562000417578251825591602001919060010190620003fa565b5b5090506200042791906200042b565b5090565b5b80821115620004465760008160009055506001016200042c565b5090565b600080fd5b6000819050919050565b62000464816200044f565b81146200047057600080fd5b50565b600081519050620004848162000459565b92915050565b600060208284031215620004a357620004a26200044a565b5b6000620004b38482850162000473565b91505092915050565b600082825260208201905092915050565b7f45524332303a206d696e7420746f20746865207a65726f206164647265737300600082015250565b600062000505601f83620004bc565b91506200051282620004cd565b602082019050919050565b600060208201905081810360008301526200053881620004f6565b9050919050565b7f4e487b7100000000000000000000000000000000000000000000000000000000600052601160045260246000fd5b60006200057b826200044f565b915062000588836200044f565b9250827fffffffffffffffffffffffffffffffffffffffffffffffffffffffffffffffff03821115620005c057620005bf6200053f565b5b828201905092915050565b620005d6816200044f565b82525050565b6000602082019050620005f36000830184620005cb565b92915050565b7f4e487b7100000000000000000000000000000000000000000000000000000000600052602260045260246000fd5b600060028204905060018216806200064157607f821691505b60208210811415620006585762000657620005f9565b5b50919050565b611a60806200066e6000396000f3fe608060405234801561001057600080fd5b50600436106100f55760003560e01c806370a0823111610097578063a457c2d711610066578063a457c2d71461028a578063a9059cbb146102ba578063dd62ed3e146102ea578063f2fde38b1461031a576100f5565b806370a0823114610214578063715018a6146102445780638da5cb5b1461024e57806395d89b411461026c576100f5565b806323b872dd116100d357806323b872dd14610166578063313ce5671461019657806339509351146101b457806340c10f19146101e4576100f5565b806306fdde03146100fa578063095ea7b31461011857806318160ddd14610148575b600080fd5b610102610336565b60405161010f9190611160565b60405180910390f35b610132600480360381019061012d919061121b565b6103c8565b60405161013f9190611276565b60405180910390f35b6101506103e6565b60405161015d91906112a0565b60405180910390f35b610180600480360381019061017b91906112bb565b6103f0565b60405161018d9190611276565b60405180910390f35b61019e6104e8565b6040516101ab919061132a565b60405180910390f35b6101ce60048036038101906101c9919061121b565b6104f1565b6040516101db9190611276565b60405180910390f35b6101fe60048036038101906101f9919061121b565b61059d565b60405161020b9190611276565b60405180910390f35b61022e60048036038101906102299190611345565b61062f565b60405161023b91906112a0565b60405180910390f35b61024c610677565b005b6102566106ff565b6040516102639190611381565b60405180910390f35b610274610729565b6040516102819190611160565b60405180910390f35b6102a4600480360381019061029f919061121b565b6107bb565b6040516102b19190611276565b60405180910390f35b6102d460048036038101906102cf919061121b565b6108a6565b6040516102e19190611276565b60405180910390f35b61030460048036038101906102ff919061139c565b6108c4565b60405161031191906112a0565b60405180910390f35b610334600480360381019061032f9190611345565b61094b565b005b6060600380546103459061140b565b80601f01602080910402602001604051908101604052809291908181526020018280546103719061140b565b80156103be5780601f10610393576101008083540402835291602001916103be565b820191906000526020600020905b8154815290600101906020018083116103a157829003601f168201915b5050505050905090565b60006103dc6103d5610a43565b8484610a4b565b6001905092915050565b6000600254905090565b60006103fd848484610c16565b6000600160008673ffffffffffffffffffffffffffffffffffffffff1673ffffffffffffffffffffffffffffffffffffffff1681526020019081526020016000206000610448610a43565b73ffffffffffffffffffffffffffffffffffffffff1673ffffffffffffffffffffffffffffffffffffffff168152602001908152602001600020549050828110156104c8576040517f08c379a00000000000000000000000000000000000000000000000000000000081526004016104bf906114af565b60405180910390fd5b6104dc856104d4610a43565b858403610a4b565b60019150509392505050565b60006012905090565b60006105936104fe610a43565b84846001600061050c610a43565b73ffffffffffffffffffffffffffffffffffffffff1673ffffffffffffffffffffffffffffffffffffffff16815260200190815260200160002060008873ffffffffffffffffffffffffffffffffffffffff1673ffffffffffffffffffffffffffffffffffffffff1681526020019081526020016000205461058e91906114fe565b610a4b565b6001905092915050565b60006105a7610a43565b73ffffffffffffffffffffffffffffffffffffffff166105c56106ff565b73ffffffffffffffffffffffffffffffffffffffff161461061b576040517f08c379a0000000000000000000000000000000000000000000000000000000008152600401610612906115a0565b60405180910390fd5b6106258383610e97565b6001905092915050565b60008060008373ffffffffffffffffffffffffffffffffffffffff1673ffffffffffffffffffffffffffffffffffffffff168152602001908152602001600020549050919050565b61067f610a43565b73ffffffffffffffffffffffffffffffffffffffff1661069d6106ff565b73ffffffffffffffffffffffffffffffffffffffff16146106f3576040517f08c379a00000000000000000000000000000000000000000000000000000000081526004016106ea906115a0565b60405180910390fd5b6106fd6000610ff7565b565b6000600560009054906101000a900473ffffffffffffffffffffffffffffffffffffffff16905090565b6060600480546107389061140b565b80601f01602080910402602001604051908101604052809291908181526020018280546107649061140b565b80156107b15780601f10610786576101008083540402835291602001916107b1565b820191906000526020600020905b81548152906001019060200180831161079457829003601f168201915b5050505050905090565b600080600160006107ca610a43565b73ffffffffffffffffffffffffffffffffffffffff1673ffffffffffffffffffffffffffffffffffffffff16815260200190815260200160002060008573ffffffffffffffffffffffffffffffffffffffff1673ffffffffffffffffffffffffffffffffffffffff16815260200190815260200160002054905082811015610887576040517f08c379a000000000000000000000000000000000000000000000000000000000815260040161087e90611632565b60405180910390fd5b61089b610892610a43565b85858403610a4b565b600191505092915050565b60006108ba6108b3610a43565b8484610c16565b6001905092915050565b6000600160008473ffffffffffffffffffffffffffffffffffffffff1673ffffffffffffffffffffffffffffffffffffffff16815260200190815260200160002060008373ffffffffffffffffffffffffffffffffffffffff1673ffffffffffffffffffffffffffffffffffffffff16815260200190815260200160002054905092915050565b610953610a43565b73ffffffffffffffffffffffffffffffffffffffff166109716106ff565b73ffffffffffffffffffffffffffffffffffffffff16146109c7576040517f08c379a00000000000000000000000000000000000000000000000000000000081526004016109be906115a0565b60405180910390fd5b600073ffffffffffffffffffffffffffffffffffffffff168173ffffffffffffffffffffffffffffffffffffffff161415610a37576040517f08c379a0000000000000000000000000000000000000000000000000000000008152600401610a2e906116c4565b60405180910390fd5b610a4081610ff7565b50565b600033905090565b600073ffffffffffffffffffffffffffffffffffffffff168373ffffffffffffffffffffffffffffffffffffffff161415610abb576040517f08c379a0000000000000000000000000000000000000000000000000000000008152600401610ab290611756565b60405180910390fd5b600073ffffffffffffffffffffffffffffffffffffffff168273ffffffffffffffffffffffffffffffffffffffff161415610b2b576040517f08c379a0000000000000000000000000000000000000000000000000000000008152600401610b22906117e8565b60405180910390fd5b80600160008573ffffffffffffffffffffffffffffffffffffffff1673ffffffffffffffffffffffffffffffffffffffff16815260200190815260200160002060008473ffffffffffffffffffffffffffffffffffffffff1673ffffffffffffffffffffffffffffffffffffffff168152602001908152602001600020819055508173ffffffffffffffffffffffffffffffffffffffff168373ffffffffffffffffffffffffffffffffffffffff167f8c5be1e5ebec7d5bd14f71427d1e84f3dd0314c0f7b2291e5b200ac8c7c3b92583604051610c0991906112a0565b60405180910390a3505050565b600073ffffffffffffffffffffffffffffffffffffffff168373ffffffffffffffffffffffffffffffffffffffff161415610c86576040517f08c379a0000000000000000000000000000000000000000000000000000000008152600401610c7d9061187a565b60405180910390fd5b600073ffffffffffffffffffffffffffffffffffffffff168273ffffffffffffffffffffffffffffffffffffffff161415610cf6576040517f08c379a0000000000000000000000000000000000000000000000000000000008152600401610ced9061190c565b60405180910390fd5b610d018383836110bd565b60008060008573ffffffffffffffffffffffffffffffffffffffff1673ffffffffffffffffffffffffffffffffffffffff16815260200190815260200160002054905081811015610d87576040517f08c379a0000000000000000000000000000000000000000000000000000000008152600401610d7e9061199e565b60405180910390fd5b8181036000808673ffffffffffffffffffffffffffffffffffffffff1673ffffffffffffffffffffffffffffffffffffffff16815260200190815260200160002081905550816000808573ffffffffffffffffffffffffffffffffffffffff1673ffffffffffffffffffffffffffffffffffffffff1681526020019081526020016000206000828254610e1a91906114fe565b925050819055508273ffffffffffffffffffffffffffffffffffffffff168473ffffffffffffffffffffffffffffffffffffffff167fddf252ad1be2c89b69c2b068fc378daa952ba7f163c4a11628f55a4df523b3ef84604051610e7e91906112a0565b60405180910390a3610e918484846110c2565b50505050565b600073ffffffffffffffffffffffffffffffffffffffff168273ffffffffffffffffffffffffffffffffffffffff161415610f07576040517f08c379a0000000000000000000000000000000000000000000000000000000008152600401610efe90611a0a565b60405180910390fd5b610f13600083836110bd565b8060026000828254610f2591906114fe565b92505081905550806000808473ffffffffffffffffffffffffffffffffffffffff1673ffffffffffffffffffffffffffffffffffffffff1681526020019081526020016000206000828254610f7a91906114fe565b925050819055508173ffffffffffffffffffffffffffffffffffffffff16600073ffffffffffffffffffffffffffffffffffffffff167fddf252ad1be2c89b69c2b068fc378daa952ba7f163c4a11628f55a4df523b3ef83604051610fdf91906112a0565b60405180910390a3610ff3600083836110c2565b5050565b6000600560009054906101000a900473ffffffffffffffffffffffffffffffffffffffff16905081600560006101000a81548173ffffffffffffffffffffffffffffffffffffffff021916908373ffffffffffffffffffffffffffffffffffffffff1602179055508173ffffffffffffffffffffffffffffffffffffffff168173ffffffffffffffffffffffffffffffffffffffff167f8be0079c531659141344cd1fd0a4f28419497f9722a3daafe3b4186f6b6457e060405160405180910390a35050565b505050565b505050565b600081519050919050565b600082825260208201905092915050565b60005b838110156111015780820151818401526020810190506110e6565b83811115611110576000848401525b50505050565b6000601f19601f8301169050919050565b6000611132826110c7565b61113c81856110d2565b935061114c8185602086016110e3565b61115581611116565b840191505092915050565b6000602082019050818103600083015261117a8184611127565b905092915050565b600080fd5b600073ffffffffffffffffffffffffffffffffffffffff82169050919050565b60006111b282611187565b9050919050565b6111c2816111a7565b81146111cd57600080fd5b50565b6000813590506111df816111b9565b92915050565b6000819050919050565b6111f8816111e5565b811461120357600080fd5b50565b600081359050611215816111ef565b92915050565b6000806040838503121561123257611231611182565b5b6000611240858286016111d0565b925050602061125185828601611206565b9150509250929050565b60008115159050919050565b6112708161125b565b82525050565b600060208201905061128b6000830184611267565b92915050565b61129a816111e5565b82525050565b60006020820190506112b56000830184611291565b92915050565b6000806000606084860312156112d4576112d3611182565b5b60006112e2868287016111d0565b93505060206112f3868287016111d0565b925050604061130486828701611206565b9150509250925092565b600060ff82169050919050565b6113248161130e565b82525050565b600060208201905061133f600083018461131b565b92915050565b60006020828403121561135b5761135a611182565b5b6000611369848285016111d0565b91505092915050565b61137b816111a7565b82525050565b60006020820190506113966000830184611372565b92915050565b600080604083850312156113b3576113b2611182565b5b60006113c1858286016111d0565b92505060206113d2858286016111d0565b9150509250929050565b7f4e487b7100000000000000000000000000000000000000000000000000000000600052602260045260246000fd5b6000600282049050600182168061142357607f821691505b60208210811415611437576114366113dc565b5b50919050565b7f45524332303a207472616e7366657220616d6f756e742065786365656473206160008201527f6c6c6f77616e6365000000000000000000000000000000000000000000000000602082015250565b60006114996028836110d2565b91506114a48261143d565b604082019050919050565b600060208201905081810360008301526114c88161148c565b9050919050565b7f4e487b7100000000000000000000000000000000000000000000000000000000600052601160045260246000fd5b6000611509826111e5565b9150611514836111e5565b9250827fffffffffffffffffffffffffffffffffffffffffffffffffffffffffffffffff03821115611549576115486114cf565b5b828201905092915050565b7f4f776e61626c653a2063616c6c6572206973206e6f7420746865206f776e6572600082015250565b600061158a6020836110d2565b915061159582611554565b602082019050919050565b600060208201905081810360008301526115b98161157d565b9050919050565b7f45524332303a2064656372656173656420616c6c6f77616e63652062656c6f7760008201527f207a65726f000000000000000000000000000000000000000000000000000000602082015250565b600061161c6025836110d2565b9150611627826115c0565b604082019050919050565b6000602082019050818103600083015261164b8161160f565b9050919050565b7f4f776e61626c653a206e6577206f776e657220697320746865207a65726f206160008201527f6464726573730000000000000000000000000000000000000000000000000000602082015250565b60006116ae6026836110d2565b91506116b982611652565b604082019050919050565b600060208201905081810360008301526116dd816116a1565b9050919050565b7f45524332303a20617070726f76652066726f6d20746865207a65726f2061646460008201527f7265737300000000000000000000000000000000000000000000000000000000602082015250565b60006117406024836110d2565b915061174b826116e4565b604082019050919050565b6000602082019050818103600083015261176f81611733565b9050919050565b7f45524332303a20617070726f766520746f20746865207a65726f20616464726560008201527f7373000000000000000000000000000000000000000000000000000000000000602082015250565b60006117d26022836110d2565b91506117dd82611776565b604082019050919050565b60006020820190508181036000830152611801816117c5565b9050919050565b7f45524332303a207472616e736665722066726f6d20746865207a65726f20616460008201527f6472657373000000000000000000000000000000000000000000000000000000602082015250565b60006118646025836110d2565b915061186f82611808565b604082019050919050565b6000602082019050818103600083015261189381611857565b9050919050565b7f45524332303a207472616e7366657220746f20746865207a65726f206164647260008201527f6573730000000000000000000000000000000000000000000000000000000000602082015250565b60006118f66023836110d2565b91506119018261189a565b604082019050919050565b60006020820190508181036000830152611925816118e9565b9050919050565b7f45524332303a207472616e7366657220616d6f756e742065786365656473206260008201527f616c616e63650000000000000000000000000000000000000000000000000000602082015250565b60006119886026836110d2565b91506119938261192c565b604082019050919050565b600060208201905081810360008301526119b78161197b565b9050919050565b7f45524332303a206d696e7420746f20746865207a65726f206164647265737300600082015250565b60006119f4601f836110d2565b91506119ff826119be565b602082019050919050565b60006020820190508181036000830152611a23816119e7565b905091905056fea2646970667358221220cc6911b40f9de21ba8de2b6b7804aa201bc98bcd30a61b054ea6cefcb91fa44664736f6c63430008090033",
  "immutableReferences": {},
  "source": "// SPDX-License-Identifier: GPL-3.0\npragma solidity 0.8.9;\n\nimport './StakeCoin.sol';\nimport '@openzeppelin/contracts/token/ERC20/ERC20.sol';\nimport \"@openzeppelin/contracts/token/ERC20/IERC20.sol\";\nimport \"@openzeppelin/contracts/token/ERC20/utils/SafeERC20.sol\";\nimport \"@openzeppelin/contracts/access/Ownable.sol\";\nimport \"@chainlink/contracts/src/v0.8/interfaces/AggregatorV3Interface.sol\";\n\n/**\n    @title Staking\n    @author Alex\n    @notice allows to deposit tokens and invests in a business\n*/\ncontract Staking is Ownable {\n\n    /**\n     * @notice this structure contains two attributes the amount staked and when it's staked\n     *         which are useful for the calculation of the reward\n     */\n    struct Stake{\n        uint amount;\n        uint dateStaked;\n    }\n\n    /**\n     * @notice historyStake connects the address of a stakeholder and a specific token one to an\n     *         array of stake type\n     */\n    mapping (address => mapping(address => Stake[])) public historyStake;\n\n    /**\n     * @notice to know who are all the stakeholders\n     */\n    address[] public stakeholders;\n\n    /**\n     * @notice Number of staking slot\n     */\n    uint slotsAvailable = 100;\n\n    /**\n     * @notice We will use stakeCoinToken for the business functions to mint for example\n     */\n    StakeCoin private stakeCoinToken;\n\n    /**\n     * @notice The accumulated rewards for each stakeholder\n     */\n    mapping(address => uint256) internal rewards;\n\n    /**\n     * @notice Rate used to calculate the reward\n     */\n    uint256 rate = 5;\n\n    /**\n     * @notice the address or the person who deploys the contract\n     */\n    address public ownerOfContract;\n\n    /**\n     * @notice priceFeed consumes price data with AggregatorV3Interface\n     */\n    AggregatorV3Interface internal priceFeed;\n\n    /**\n     *  @notice list of the events used\n     */\n    //admin modifier onlyOwner\n    event StakeholderAdded(address stakeholderAddress);\n    //admin modifier onlyOwner\n    event StakeholderRemoved(address stakeholderAddress);\n    //admin & user modifier\n    event StakeCreated(address stakeholderAddress, uint256 stakeholderStake, address tokenAddress);\n    //admin & user modifier\n    //event StakeRemoved(address stakeholderAddress, uint256 stakeholderStake, address tokenAddress);\n    event StakeRemoved(address stakeholderAddress, address tokenAddress);\n\n\n    //admin & user modifier\n    event RewardCalculated(address stakeholderAddress, uint reward, address tokenAddress);\n    //admin & user modifier\n    event RewardsDistributed(address stakeholderAddress, address tokenAddress);\n    //admin & user modifier\n    event RewardWithdrawn(address stakeholderAddress);\n\n    /**\n     *  @notice to deploy ERC20 token\n     *  @param _stakeCoin StakeCoin token to instantiate\n     */\n    constructor(StakeCoin _stakeCoin) {\n        ownerOfContract = msg.sender;\n        if (address(_stakeCoin) == address(0)){\n            stakeCoinToken = new StakeCoin(0);\n        }else{\n            stakeCoinToken = _stakeCoin;\n        }\n        priceFeed = AggregatorV3Interface(0x3Af8C569ab77af5230596Acf0E8c2F9351d24C38);\n    }\n\n    /**\n        @notice modifier to check if the current address is a stakeholder/admin one or not\n    */\n    modifier onlyStakeholderOrOwnerOfContract(address _address) {\n        (bool stakeholderFlag, uint256 i) = isStakeholder(_address);\n        require(stakeholderFlag == true || msg.sender == ownerOfContract, \"the address is not a stakeholder/admin!\");\n        _;\n    }\n\n\n    //======== Helper functions ========\n    /**\n     *   @notice gives the list of the addresses of the stakeholders\n     *   @return list of addresses corresponding to the stakeholders\n     */\n    function getStakeholders() public view returns(address[] memory){\n        return stakeholders;\n    }\n\n    /**\n        @notice return the current market value of the locked-in asset\n        @return price the current market value\n    */\n    function getPrice() public view returns (int) {\n\n        (uint80 roundID, int256 price, uint256 startedAt, uint256 timeStamp, uint80 answeredInRound) = priceFeed.latestRoundData();\n\n        return price;\n\n    }\n\n    /**\n        @notice determines if the address Ethereum is stakeHolder or not\n        @param _address are you a stakeholder?\n        @return bool whether you are stakeholder or not\n        <!> it works with Remix!\n    */\n    function isStakeholder(address _address) public view returns(bool, uint256){\n\n        for (uint256 i=0; i < stakeholders.length; i += 1){\n            if( _address == stakeholders[i])\n                return (true, i);\n\n        }\n        return (false, 0);\n    }\n\n    /**\n        @notice allows to register a stakeholder in the dynamic array\n        @param _stakeholder a new stakeholder to add\n        <!> it works with Remix!\n    */\n    function addStakeholder(address _stakeholder) onlyOwner public {\n\n        (bool _isStakeholder, ) = isStakeholder(_stakeholder);\n\n        require(!_isStakeholder,'this address is already a stakeholder');\n        stakeholders.push(_stakeholder);\n\n        emit StakeholderAdded(_stakeholder);\n    }\n\n    /**\n        @notice allows to delete a stakeholder from the dynamic array\n        @param _stakeholder the stakeholder to remove from the dynamic array\n        <!> it works with Remix!\n    */\n    function removeStakeholder(address _stakeholder) onlyOwner public {\n\n        (bool _isStakeholder, uint256 s) = isStakeholder(_stakeholder);\n\n        require(_isStakeholder,'this address (= stakeholder) is already removed');\n\n        stakeholders[s] = stakeholders[stakeholders.length - 1];\n        stakeholders.pop();\n\n        emit StakeholderRemoved(_stakeholder);\n    }\n\n    /**\n        @notice A method to retrieve the array of stake for a stakeholder with a token given in argument.\n        @param _addressStakeHolder the address of the stakeHolder to put in order to get the stake\n        @param _tokenAddress We get the stake related to a specific tokenAddress\n        @return The sum in wei\n        <!> TO TEST AGAIN!\n    */\n    function stakeOf(address _addressStakeHolder, address _tokenAddress) onlyStakeholderOrOwnerOfContract(msg.sender) public view returns(Stake[] memory){\n\n        return(historyStake[_addressStakeHolder][_tokenAddress]);\n\n    }\n\n    /**\n        @notice aggregates all the amounts staked of all stakeholders for a given token\n        @param _tokenAddress We sum the staked amounts for this token\n        @return uint256 The sum of the staked amounts from all stakeholders\n        <!> TO TEST AGAIN!\n    */\n    function sumOfStakes(address _tokenAddress) public view returns(uint256){\n\n        uint256 sumStakes = 0;\n        for(uint256 i=0; i < stakeholders.length; i += 1){\n            sumStakes = sumStakes + historyStake[stakeholders[i]][_tokenAddress][i].amount;\n        }\n\n        return sumStakes;\n    }\n\n    /**\n        @notice a method for a stakeholder to create a stake\n        @param _stake The size of the stake to be created\n        @param _tokenAddress we are managing the stake related to this token\n        <!> it works with Remix!\n    */\n    function createStake(uint256 _stake, address _tokenAddress) onlyStakeholderOrOwnerOfContract(msg.sender) public {\n\n        //Is it a false address 0x0 and the sc is well deployed? tokenAddress != address(0)\n        //require(_tokenAddress != address(0),'This token address is false');\n\n        //Is it a erc20?\n        require(IERC20(_tokenAddress).totalSupply() > 0,'Not an ERC20');\n\n\n        historyStake[msg.sender][_tokenAddress].push(Stake(_stake, block.timestamp));\n\n        // transfert des tokens sur _tokenAddress de msg.sender vers le contract du montant _stake\n        IERC20(_tokenAddress).transferFrom(msg.sender, address(this), _stake);\n\n        emit StakeCreated(msg.sender, _stake, _tokenAddress);\n    }\n\n    /**\n        @notice a method for a stakeholder to remove a stake\n        @param _tokenAddress we are managing the stake related to this token\n        <!> it works with Remix!\n    */\n    function removeStake(address _tokenAddress) onlyStakeholderOrOwnerOfContract(msg.sender) public{\n\n        //Is it a erc20?\n        require(IERC20(_tokenAddress).totalSupply() > 0);\n\n        //TODO\n        //calcul de la reward li au token\n        //transfer du token reward vers msg.sender\n\n        //calcul du nombre de token staker\n        //uint stakedToken = historyStake[msg.sender][_tokenAddress][i].amount;\n\n        //transferer ce montant de token vers msg.sender\n        //IERC20(_tokenAddress).transfer(msg.sender,_stake);\n        //IERC20(_tokenAddress).transfer(msg.sender,stakedToken);\n\n        //delete l'historique pour repartir  0\n        delete historyStake[msg.sender][_tokenAddress];\n\n        //emit StakeRemoved(msg.sender, _stake, _tokenAddress);\n        emit StakeRemoved(msg.sender, _tokenAddress);\n    }\n\n    /**\n        @notice function to allow the stakeholder to check his rewards\n        @param _stakeholder to point out the stakeholder identity address\n        @return We get these rewards for this stakeholder\n        <!> TO TEST AGAIN!\n    */\n    function rewardOf(address _stakeholder) public view returns(uint256) {\n        return rewards[_stakeholder];\n    }\n\n    /**\n        @notice function to aggregate rewards from all stakeholders\n        @return uint256 The aggregated rewards from all stakeholders\n        <!> TO TEST AGAIN!\n    */\n    function getTotalRewards() public view returns(uint256){\n\n        uint256 totalRewards = 0;\n\n        for(uint256 i=0; i<stakeholders.length; i++){\n            totalRewards = totalRewards + rewards[stakeholders[i]];\n        }\n\n        return totalRewards;\n    }\n\n    /**\n        @notice function to calculate rewards for each stakeholder\n        @param _stakeholder We will calculate the reward for this stakeholder\n        @param _tokenAddress We will calculate the reward related to this token\n        @return uint256 The reward calculated by the formula\n        <!> it works with Remix!\n    */\n    function calculateReward(address _stakeholder, address _tokenAddress) onlyStakeholderOrOwnerOfContract(msg.sender) public returns(uint256){\n\n        uint reward = 0;\n\n        for (uint256 i = 0; i < historyStake[_stakeholder][_tokenAddress].length; i++) {\n            reward = reward +\n            historyStake[_stakeholder][_tokenAddress][i].amount * 5 / 100 *\n            //for the test in remix, change 1 days to 1 second otherwise it's too long to test\n            ((block.timestamp - historyStake[_stakeholder][_tokenAddress][i].dateStaked) / 1 seconds);\n        }\n\n        emit RewardCalculated(_stakeholder, reward, _tokenAddress);\n        return reward;\n    }\n\n    /**\n        @notice function to distribute rewards to all stakeholders\n        @param _tokenAddress we will distribute the rewards associated to this tokenAddress\n        <!> TO TEST AGAIN!\n    */\n    function distributeRewards(address _tokenAddress) onlyStakeholderOrOwnerOfContract(msg.sender)\n    public onlyOwner {\n\n        uint rewardQuantity;\n        for (uint256 i = 0; i < stakeholders.length; i++ ){\n            address stakeholder = stakeholders[i];\n            rewardQuantity = calculateReward(stakeholder, _tokenAddress);\n            rewards[stakeholder] = rewards[stakeholder] + rewardQuantity;\n\n            //Conversion reward de _tokenAddress vers stakeCoinToken\n            int256 tokenPrice = getPrice(); // unit tokenPrice\n            uint rewardsToDistribute = rewardQuantity / uint(tokenPrice); // if 1 STC = 1 ETH\n\n            stakeCoinToken.mint(address(this),rewards[stakeholder]);\n            stakeCoinToken.transfer(stakeholder, rewards[stakeholder]);\n\n        }\n\n        emit RewardsDistributed(msg.sender, _tokenAddress);\n    }\n\n    /**\n        @notice function to allow the stakeholder to withdraw his rewards\n    */\n    function withdrawReward() onlyStakeholderOrOwnerOfContract(msg.sender) public {\n\n        require(rewards[msg.sender] > 0, \"No reward to withdraw\");\n        uint reward = rewards[msg.sender];\n        rewards[msg.sender] = 0;\n        stakeCoinToken.mint(msg.sender,reward);\n\n        emit RewardWithdrawn(msg.sender);\n    }\n}\n\n",
  "sourcePath": "/Users/alexandre/WebstormProjects/alyraChallenge4Stacking/contracts/Staking.sol",
  "compiler": {
    "name": "solc",
    "version": "0.8.9+commit.e5eed63a.Emscripten.clang"
  },
  "schemaVersion": "3.4.1",
  "updatedAt": "2021-12-07T21:40:42.046Z",
  "networkType": "ethereum",
  "devdoc": {
    "author": "Alex",
    "kind": "dev",
    "methods": {
      "addStakeholder(address)": {
        "params": {
          "_stakeholder": "a new stakeholder to add <!> it works with Remix!"
        }
      },
      "calculateReward(address,address)": {
        "params": {
          "_stakeholder": "We will calculate the reward for this stakeholder",
          "_tokenAddress": "We will calculate the reward related to this token"
        },
        "returns": {
          "_0": "uint256 The reward calculated by the formula <!> it works with Remix!"
        }
      },
      "constructor": {
        "params": {
          "_stakeCoin": "StakeCoin token to instantiate"
        }
      },
      "createStake(uint256,address)": {
        "params": {
          "_stake": "The size of the stake to be created",
          "_tokenAddress": "we are managing the stake related to this token <!> it works with Remix!"
        }
      },
      "distributeRewards(address)": {
        "params": {
          "_tokenAddress": "we will distribute the rewards associated to this tokenAddress <!> TO TEST AGAIN!"
        }
      },
      "getPrice()": {
        "returns": {
          "_0": "price the current market value"
        }
      },
      "getStakeholders()": {
        "returns": {
          "_0": "list of addresses corresponding to the stakeholders"
        }
      },
      "getTotalRewards()": {
        "returns": {
          "_0": "uint256 The aggregated rewards from all stakeholders <!> TO TEST AGAIN!"
        }
      },
      "isStakeholder(address)": {
        "params": {
          "_address": "are you a stakeholder?"
        },
        "returns": {
          "_0": "bool whether you are stakeholder or not <!> it works with Remix!"
        }
      },
      "owner()": {
        "details": "Returns the address of the current owner."
      },
      "removeStake(address)": {
        "params": {
          "_tokenAddress": "we are managing the stake related to this token <!> it works with Remix!"
        }
      },
      "removeStakeholder(address)": {
        "params": {
          "_stakeholder": "the stakeholder to remove from the dynamic array <!> it works with Remix!"
        }
      },
      "renounceOwnership()": {
        "details": "Leaves the contract without owner. It will not be possible to call `onlyOwner` functions anymore. Can only be called by the current owner. NOTE: Renouncing ownership will leave the contract without an owner, thereby removing any functionality that is only available to the owner."
      },
      "rewardOf(address)": {
        "params": {
          "_stakeholder": "to point out the stakeholder identity address"
        },
        "returns": {
          "_0": "We get these rewards for this stakeholder <!> TO TEST AGAIN!"
        }
      },
      "stakeOf(address,address)": {
        "params": {
          "_addressStakeHolder": "the address of the stakeHolder to put in order to get the stake",
          "_tokenAddress": "We get the stake related to a specific tokenAddress"
        },
        "returns": {
          "_0": "The sum in wei <!> TO TEST AGAIN!"
        }
      },
      "sumOfStakes(address)": {
        "params": {
          "_tokenAddress": "We sum the staked amounts for this token"
        },
        "returns": {
          "_0": "uint256 The sum of the staked amounts from all stakeholders <!> TO TEST AGAIN!"
        }
      },
      "transferOwnership(address)": {
        "details": "Transfers ownership of the contract to a new account (`newOwner`). Can only be called by the current owner."
      }
    },
    "title": "Staking",
    "version": 1
  },
  "userdoc": {
    "events": {
      "StakeholderAdded(address)": {
        "notice": "list of the events used"
      }
    },
    "kind": "user",
    "methods": {
      "addStakeholder(address)": {
        "notice": "allows to register a stakeholder in the dynamic array"
      },
      "calculateReward(address,address)": {
        "notice": "function to calculate rewards for each stakeholder"
      },
      "constructor": {
        "notice": "to deploy ERC20 token"
      },
      "createStake(uint256,address)": {
        "notice": "a method for a stakeholder to create a stake"
      },
      "distributeRewards(address)": {
        "notice": "function to distribute rewards to all stakeholders"
      },
      "getPrice()": {
        "notice": "return the current market value of the locked-in asset"
      },
      "getStakeholders()": {
        "notice": "gives the list of the addresses of the stakeholders"
      },
      "getTotalRewards()": {
        "notice": "function to aggregate rewards from all stakeholders"
      },
      "historyStake(address,address,uint256)": {
        "notice": "historyStake connects the address of a stakeholder and a specific token one to an         array of stake type"
      },
      "isStakeholder(address)": {
        "notice": "determines if the address Ethereum is stakeHolder or not"
      },
      "ownerOfContract()": {
        "notice": "the address or the person who deploys the contract"
      },
      "removeStake(address)": {
        "notice": "a method for a stakeholder to remove a stake"
      },
      "removeStakeholder(address)": {
        "notice": "allows to delete a stakeholder from the dynamic array"
      },
      "rewardOf(address)": {
        "notice": "function to allow the stakeholder to check his rewards"
      },
      "stakeOf(address,address)": {
        "notice": "A method to retrieve the array of stake for a stakeholder with a token given in argument."
      },
      "stakeholders(uint256)": {
        "notice": "to know who are all the stakeholders"
      },
      "sumOfStakes(address)": {
        "notice": "aggregates all the amounts staked of all stakeholders for a given token"
      },
      "withdrawReward()": {
        "notice": "function to allow the stakeholder to withdraw his rewards"
      }
    },
    "notice": "allows to deposit tokens and invests in a business",
    "version": 1
  }
}