{
  "contractName": "Staking",
  "abi": [
    {
      "inputs": [
        {
          "internalType": "contract StakeCoin",
          "name": "_stakeCoin",
          "type": "address"
        }
      ],
      "stateMutability": "nonpayable",
      "type": "constructor"
    },
    {
      "inputs": [
        {
          "internalType": "address",
          "name": "",
          "type": "address"
        }
      ],
      "name": "hasStaked",
      "outputs": [
        {
          "internalType": "bool",
          "name": "",
          "type": "bool"
        }
      ],
      "stateMutability": "view",
      "type": "function"
    },
    {
      "inputs": [
        {
          "internalType": "address",
          "name": "",
          "type": "address"
        }
      ],
      "name": "isStaking",
      "outputs": [
        {
          "internalType": "bool",
          "name": "",
          "type": "bool"
        }
      ],
      "stateMutability": "view",
      "type": "function"
    },
    {
      "inputs": [],
      "name": "name",
      "outputs": [
        {
          "internalType": "string",
          "name": "",
          "type": "string"
        }
      ],
      "stateMutability": "view",
      "type": "function"
    },
    {
      "inputs": [],
      "name": "owner",
      "outputs": [
        {
          "internalType": "address",
          "name": "",
          "type": "address"
        }
      ],
      "stateMutability": "view",
      "type": "function"
    },
    {
      "inputs": [],
      "name": "stakeCoin",
      "outputs": [
        {
          "internalType": "contract StakeCoin",
          "name": "",
          "type": "address"
        }
      ],
      "stateMutability": "view",
      "type": "function"
    },
    {
      "inputs": [
        {
          "internalType": "uint256",
          "name": "",
          "type": "uint256"
        }
      ],
      "name": "stakers",
      "outputs": [
        {
          "internalType": "address",
          "name": "",
          "type": "address"
        }
      ],
      "stateMutability": "view",
      "type": "function"
    },
    {
      "inputs": [
        {
          "internalType": "address",
          "name": "",
          "type": "address"
        }
      ],
      "name": "stakingBalance",
      "outputs": [
        {
          "internalType": "uint256",
          "name": "",
          "type": "uint256"
        }
      ],
      "stateMutability": "view",
      "type": "function"
    },
    {
      "inputs": [
        {
          "internalType": "uint256",
          "name": "_amount",
          "type": "uint256"
        }
      ],
      "name": "depositTokens",
      "outputs": [],
      "stateMutability": "nonpayable",
      "type": "function"
    }
  ],
  "bytecode": "0x60806040526040518060400160405280600781526020017f5374616b696e67000000000000000000000000000000000000000000000000008152506000908051906020019062000051929190620000cd565b503480156200005f57600080fd5b5060405162000d8b38038062000d8b8339818101604052810190620000859190620001fb565b80600260006101000a81548173ffffffffffffffffffffffffffffffffffffffff021916908373ffffffffffffffffffffffffffffffffffffffff1602179055505062000292565b828054620000db906200025c565b90600052602060002090601f016020900481019282620000ff57600085556200014b565b82601f106200011a57805160ff19168380011785556200014b565b828001600101855582156200014b579182015b828111156200014a5782518255916020019190600101906200012d565b5b5090506200015a91906200015e565b5090565b5b80821115620001795760008160009055506001016200015f565b5090565b600080fd5b600073ffffffffffffffffffffffffffffffffffffffff82169050919050565b6000620001af8262000182565b9050919050565b6000620001c382620001a2565b9050919050565b620001d581620001b6565b8114620001e157600080fd5b50565b600081519050620001f581620001ca565b92915050565b6000602082840312156200021457620002136200017d565b5b60006200022484828501620001e4565b91505092915050565b7f4e487b7100000000000000000000000000000000000000000000000000000000600052602260045260246000fd5b600060028204905060018216806200027557607f821691505b602082108114156200028c576200028b6200022d565b5b50919050565b610ae980620002a26000396000f3fe608060405234801561001057600080fd5b50600436106100885760003560e01c80638da5cb5b1161005b5780638da5cb5b14610129578063c93c8f3414610147578063dd49756e14610177578063fd5e6dd11461019357610088565b806306fdde031461008d57806329efd729146100ab57806345bc78ab146100c95780636f49712b146100f9575b600080fd5b6100956101c3565b6040516100a291906106b8565b60405180910390f35b6100b3610251565b6040516100c09190610759565b60405180910390f35b6100e360048036038101906100de91906107b7565b610277565b6040516100f091906107fd565b60405180910390f35b610113600480360381019061010e91906107b7565b61028f565b6040516101209190610833565b60405180910390f35b6101316102af565b60405161013e919061085d565b60405180910390f35b610161600480360381019061015c91906107b7565b6102d5565b60405161016e9190610833565b60405180910390f35b610191600480360381019061018c91906108a4565b6102f5565b005b6101ad60048036038101906101a891906108a4565b6105e0565b6040516101ba919061085d565b60405180910390f35b600080546101d090610900565b80601f01602080910402602001604051908101604052809291908181526020018280546101fc90610900565b80156102495780601f1061021e57610100808354040283529160200191610249565b820191906000526020600020905b81548152906001019060200180831161022c57829003601f168201915b505050505081565b600260009054906101000a900473ffffffffffffffffffffffffffffffffffffffff1681565b60046020528060005260406000206000915090505481565b60066020528060005260406000206000915054906101000a900460ff1681565b600160009054906101000a900473ffffffffffffffffffffffffffffffffffffffff1681565b60056020528060005260406000206000915054906101000a900460ff1681565b60008111610338576040517f08c379a000000000000000000000000000000000000000000000000000000000815260040161032f9061097e565b60405180910390fd5b600260009054906101000a900473ffffffffffffffffffffffffffffffffffffffff1673ffffffffffffffffffffffffffffffffffffffff166323b872dd3330846040518463ffffffff1660e01b81526004016103979392919061099e565b602060405180830381600087803b1580156103b157600080fd5b505af11580156103c5573d6000803e3d6000fd5b505050506040513d601f19601f820116820180604052508101906103e99190610a01565b5080600460003373ffffffffffffffffffffffffffffffffffffffff1673ffffffffffffffffffffffffffffffffffffffff168152602001908152602001600020546104359190610a5d565b600460003373ffffffffffffffffffffffffffffffffffffffff1673ffffffffffffffffffffffffffffffffffffffff16815260200190815260200160002081905550600560003373ffffffffffffffffffffffffffffffffffffffff1673ffffffffffffffffffffffffffffffffffffffff16815260200190815260200160002060009054906101000a900460ff1661052d576003339080600181540180825580915050600190039060005260206000200160009091909190916101000a81548173ffffffffffffffffffffffffffffffffffffffff021916908373ffffffffffffffffffffffffffffffffffffffff1602179055505b6001600660003373ffffffffffffffffffffffffffffffffffffffff1673ffffffffffffffffffffffffffffffffffffffff16815260200190815260200160002060006101000a81548160ff0219169083151502179055506001600560003373ffffffffffffffffffffffffffffffffffffffff1673ffffffffffffffffffffffffffffffffffffffff16815260200190815260200160002060006101000a81548160ff02191690831515021790555050565b600381815481106105f057600080fd5b906000526020600020016000915054906101000a900473ffffffffffffffffffffffffffffffffffffffff1681565b600081519050919050565b600082825260208201905092915050565b60005b8381101561065957808201518184015260208101905061063e565b83811115610668576000848401525b50505050565b6000601f19601f8301169050919050565b600061068a8261061f565b610694818561062a565b93506106a481856020860161063b565b6106ad8161066e565b840191505092915050565b600060208201905081810360008301526106d2818461067f565b905092915050565b600073ffffffffffffffffffffffffffffffffffffffff82169050919050565b6000819050919050565b600061071f61071a610715846106da565b6106fa565b6106da565b9050919050565b600061073182610704565b9050919050565b600061074382610726565b9050919050565b61075381610738565b82525050565b600060208201905061076e600083018461074a565b92915050565b600080fd5b6000610784826106da565b9050919050565b61079481610779565b811461079f57600080fd5b50565b6000813590506107b18161078b565b92915050565b6000602082840312156107cd576107cc610774565b5b60006107db848285016107a2565b91505092915050565b6000819050919050565b6107f7816107e4565b82525050565b600060208201905061081260008301846107ee565b92915050565b60008115159050919050565b61082d81610818565b82525050565b60006020820190506108486000830184610824565b92915050565b61085781610779565b82525050565b6000602082019050610872600083018461084e565b92915050565b610881816107e4565b811461088c57600080fd5b50565b60008135905061089e81610878565b92915050565b6000602082840312156108ba576108b9610774565b5b60006108c88482850161088f565b91505092915050565b7f4e487b7100000000000000000000000000000000000000000000000000000000600052602260045260246000fd5b6000600282049050600182168061091857607f821691505b6020821081141561092c5761092b6108d1565b5b50919050565b7f616d6f756e742063616e6e6f7420626520300000000000000000000000000000600082015250565b600061096860128361062a565b915061097382610932565b602082019050919050565b600060208201905081810360008301526109978161095b565b9050919050565b60006060820190506109b3600083018661084e565b6109c0602083018561084e565b6109cd60408301846107ee565b949350505050565b6109de81610818565b81146109e957600080fd5b50565b6000815190506109fb816109d5565b92915050565b600060208284031215610a1757610a16610774565b5b6000610a25848285016109ec565b91505092915050565b7f4e487b7100000000000000000000000000000000000000000000000000000000600052601160045260246000fd5b6000610a68826107e4565b9150610a73836107e4565b9250827fffffffffffffffffffffffffffffffffffffffffffffffffffffffffffffffff03821115610aa857610aa7610a2e565b5b82820190509291505056fea26469706673582212204500d556e945d6281f8776a1016ed47352da8961a7fb19843b1db3ca4b68f49364736f6c63430008090033",
  "immutableReferences": {},
  "source": "// SPDX-License-Identifier: GPL-3.0\npragma solidity 0.8.9;\n\nimport './StakeCoin.sol';\n\ncontract Staking {\n\n    string public name = 'Staking';\n    address public owner;\n    StakeCoin public stakeCoin;\n\n    //the different participants for our stacking contract\n    address[] public stakers;\n\n    //the amount deposited by the stackers (= address)\n    mapping(address => uint) public stakingBalance;\n\n    //this stacker (= address) has stacked?\n    mapping(address => bool) public hasStaked;\n\n    //this stacker (= address) is staking?\n    mapping(address => bool) public isStaking;\n\n    /**\n     * @dev Sets the value for {stackCoin}.\n     */\n    constructor(StakeCoin _stakeCoin) public {\n        stakeCoin = _stakeCoin;\n    }\n\n    /**\n     * title depositTokens\n     * @notice allows the stakers to put money in this contract\n     * @dev I use transferFrom from OpenZeppelin\n     * @param _amount the sum of token ERC20 to stake\n     */\n    function depositTokens(uint _amount) public {\n\n        //require staking amount to be greater than 0\n        require(_amount > 0, 'amount cannot be 0');\n\n        //transfer stackCoin tokens to this contract address for this stakingBalance\n        stakeCoin.transferFrom(msg.sender, address(this), _amount);\n\n        //update staking balance\n        stakingBalance[msg.sender] = stakingBalance[msg.sender] + _amount;\n\n        if(!hasStaked[msg.sender]) {\n            stakers.push(msg.sender);\n        }\n\n        //update staking balance\n        isStaking[msg.sender] = true;\n        hasStaked[msg.sender] = true;\n    }\n}\n",
  "sourcePath": "/Users/alexandre/WebstormProjects/alyraChallenge4Stacking/contracts/Staking.sol",
  "compiler": {
    "name": "solc",
    "version": "0.8.9+commit.e5eed63a.Emscripten.clang"
  },
  "schemaVersion": "3.4.1",
  "updatedAt": "2021-10-30T21:40:15.710Z",
  "devdoc": {
    "kind": "dev",
    "methods": {
      "constructor": {
        "details": "Sets the value for {stackCoin}."
      },
      "depositTokens(uint256)": {
        "details": "I use transferFrom from OpenZeppelin",
        "params": {
          "_amount": "the sum of token ERC20 to stake"
        }
      }
    },
    "version": 1
  },
  "userdoc": {
    "kind": "user",
    "methods": {
      "depositTokens(uint256)": {
        "notice": "title depositTokensallows the stakers to put money in this contract"
      }
    },
    "version": 1
  }
}